{
  "_format": "hh-sol-artifact-1",
  "contractName": "Warranty",
  "sourceName": "contracts/warranty.sol",
  "abi": [
    {
      "inputs": [],
      "stateMutability": "nonpayable",
      "type": "constructor"
    },
    {
      "anonymous": false,
      "inputs": [
        {
          "indexed": true,
          "internalType": "address",
          "name": "owner",
          "type": "address"
        },
        {
          "indexed": true,
          "internalType": "address",
          "name": "approved",
          "type": "address"
        },
        {
          "indexed": true,
          "internalType": "uint256",
          "name": "tokenId",
          "type": "uint256"
        }
      ],
      "name": "Approval",
      "type": "event"
    },
    {
      "anonymous": false,
      "inputs": [
        {
          "indexed": true,
          "internalType": "address",
          "name": "owner",
          "type": "address"
        },
        {
          "indexed": true,
          "internalType": "address",
          "name": "operator",
          "type": "address"
        },
        {
          "indexed": false,
          "internalType": "bool",
          "name": "approved",
          "type": "bool"
        }
      ],
      "name": "ApprovalForAll",
      "type": "event"
    },
    {
      "anonymous": false,
      "inputs": [
        {
          "indexed": true,
          "internalType": "uint256",
          "name": "tokenId",
          "type": "uint256"
        },
        {
          "indexed": false,
          "internalType": "string",
          "name": "uri",
          "type": "string"
        },
        {
          "indexed": false,
          "internalType": "address",
          "name": "mintedBy",
          "type": "address"
        },
        {
          "indexed": false,
          "internalType": "address",
          "name": "owner",
          "type": "address"
        },
        {
          "indexed": false,
          "internalType": "address",
          "name": "soldBy",
          "type": "address"
        },
        {
          "indexed": false,
          "internalType": "uint256",
          "name": "validUntil",
          "type": "uint256"
        },
        {
          "indexed": false,
          "internalType": "uint256",
          "name": "redemptionLimit",
          "type": "uint256"
        },
        {
          "indexed": false,
          "internalType": "uint256",
          "name": "redemptionCount",
          "type": "uint256"
        }
      ],
      "name": "NftWarrantyCreated",
      "type": "event"
    },
    {
      "anonymous": false,
      "inputs": [
        {
          "indexed": true,
          "internalType": "bytes32",
          "name": "role",
          "type": "bytes32"
        },
        {
          "indexed": true,
          "internalType": "bytes32",
          "name": "previousAdminRole",
          "type": "bytes32"
        },
        {
          "indexed": true,
          "internalType": "bytes32",
          "name": "newAdminRole",
          "type": "bytes32"
        }
      ],
      "name": "RoleAdminChanged",
      "type": "event"
    },
    {
      "anonymous": false,
      "inputs": [
        {
          "indexed": true,
          "internalType": "bytes32",
          "name": "role",
          "type": "bytes32"
        },
        {
          "indexed": true,
          "internalType": "address",
          "name": "account",
          "type": "address"
        },
        {
          "indexed": true,
          "internalType": "address",
          "name": "sender",
          "type": "address"
        }
      ],
      "name": "RoleGranted",
      "type": "event"
    },
    {
      "anonymous": false,
      "inputs": [
        {
          "indexed": true,
          "internalType": "bytes32",
          "name": "role",
          "type": "bytes32"
        },
        {
          "indexed": true,
          "internalType": "address",
          "name": "account",
          "type": "address"
        },
        {
          "indexed": true,
          "internalType": "address",
          "name": "sender",
          "type": "address"
        }
      ],
      "name": "RoleRevoked",
      "type": "event"
    },
    {
      "anonymous": false,
      "inputs": [
        {
          "indexed": true,
          "internalType": "address",
          "name": "from",
          "type": "address"
        },
        {
          "indexed": true,
          "internalType": "address",
          "name": "to",
          "type": "address"
        },
        {
          "indexed": true,
          "internalType": "uint256",
          "name": "tokenId",
          "type": "uint256"
        }
      ],
      "name": "Transfer",
      "type": "event"
    },
    {
      "inputs": [],
      "name": "ADMIN_ROLE",
      "outputs": [
        {
          "internalType": "bytes32",
          "name": "",
          "type": "bytes32"
        }
      ],
      "stateMutability": "view",
      "type": "function"
    },
    {
      "inputs": [],
      "name": "DEFAULT_ADMIN_ROLE",
      "outputs": [
        {
          "internalType": "bytes32",
          "name": "",
          "type": "bytes32"
        }
      ],
      "stateMutability": "view",
      "type": "function"
    },
    {
      "inputs": [],
      "name": "SELLER_ROLE",
      "outputs": [
        {
          "internalType": "bytes32",
          "name": "",
          "type": "bytes32"
        }
      ],
      "stateMutability": "view",
      "type": "function"
    },
    {
      "inputs": [
        {
          "internalType": "address",
          "name": "to",
          "type": "address"
        },
        {
          "internalType": "uint256",
          "name": "tokenId",
          "type": "uint256"
        }
      ],
      "name": "approve",
      "outputs": [],
      "stateMutability": "nonpayable",
      "type": "function"
    },
    {
      "inputs": [
        {
          "internalType": "address",
          "name": "_to",
          "type": "address"
        }
      ],
      "name": "assignAdmin",
      "outputs": [],
      "stateMutability": "nonpayable",
      "type": "function"
    },
    {
      "inputs": [
        {
          "internalType": "address",
          "name": "_to",
          "type": "address"
        }
      ],
      "name": "assignSeller",
      "outputs": [],
      "stateMutability": "nonpayable",
      "type": "function"
    },
    {
      "inputs": [
        {
          "internalType": "uint256",
          "name": "_tokenId",
          "type": "uint256"
        }
      ],
      "name": "availWarranty",
      "outputs": [
        {
          "internalType": "string",
          "name": "",
          "type": "string"
        }
      ],
      "stateMutability": "nonpayable",
      "type": "function"
    },
    {
      "inputs": [
        {
          "internalType": "address",
          "name": "owner",
          "type": "address"
        }
      ],
      "name": "balanceOf",
      "outputs": [
        {
          "internalType": "uint256",
          "name": "",
          "type": "uint256"
        }
      ],
      "stateMutability": "view",
      "type": "function"
    },
    {
      "inputs": [
        {
          "internalType": "address",
          "name": "_to",
          "type": "address"
        },
        {
          "internalType": "string",
          "name": "tokenURI",
          "type": "string"
        },
        {
          "internalType": "uint256",
          "name": "_minutesValid",
          "type": "uint256"
        },
        {
          "internalType": "uint256",
          "name": "_redemptionLimit",
          "type": "uint256"
        }
      ],
      "name": "createWarranty",
      "outputs": [
        {
          "internalType": "uint256",
          "name": "",
          "type": "uint256"
        }
      ],
      "stateMutability": "nonpayable",
      "type": "function"
    },
    {
      "inputs": [],
      "name": "fetchMyNFTs",
      "outputs": [
        {
          "components": [
            {
              "internalType": "uint256",
              "name": "tokenId",
              "type": "uint256"
            },
            {
              "internalType": "string",
              "name": "uri",
              "type": "string"
            },
            {
              "internalType": "address",
              "name": "mintedBy",
              "type": "address"
            },
            {
              "internalType": "address",
              "name": "owner",
              "type": "address"
            },
            {
              "internalType": "address",
              "name": "soldBy",
              "type": "address"
            },
            {
              "internalType": "uint256",
              "name": "validUntil",
              "type": "uint256"
            },
            {
              "internalType": "uint256",
              "name": "redemptionLimit",
              "type": "uint256"
            },
            {
              "internalType": "uint256",
              "name": "redemptionCount",
              "type": "uint256"
            }
          ],
          "internalType": "struct Warranty.warrantyNFT[]",
          "name": "",
          "type": "tuple[]"
        }
      ],
      "stateMutability": "view",
      "type": "function"
    },
    {
      "inputs": [
        {
          "internalType": "uint256",
          "name": "_tokenId",
          "type": "uint256"
        }
      ],
      "name": "fetchNFTbyTokenId",
      "outputs": [
        {
          "components": [
            {
              "internalType": "uint256",
              "name": "tokenId",
              "type": "uint256"
            },
            {
              "internalType": "string",
              "name": "uri",
              "type": "string"
            },
            {
              "internalType": "address",
              "name": "mintedBy",
              "type": "address"
            },
            {
              "internalType": "address",
              "name": "owner",
              "type": "address"
            },
            {
              "internalType": "address",
              "name": "soldBy",
              "type": "address"
            },
            {
              "internalType": "uint256",
              "name": "validUntil",
              "type": "uint256"
            },
            {
              "internalType": "uint256",
              "name": "redemptionLimit",
              "type": "uint256"
            },
            {
              "internalType": "uint256",
              "name": "redemptionCount",
              "type": "uint256"
            }
          ],
          "internalType": "struct Warranty.warrantyNFT",
          "name": "",
          "type": "tuple"
        }
      ],
      "stateMutability": "view",
      "type": "function"
    },
    {
      "inputs": [
        {
          "internalType": "address",
          "name": "_by",
          "type": "address"
        }
      ],
      "name": "fetchNFTsMintedBy",
      "outputs": [
        {
          "components": [
            {
              "internalType": "uint256",
              "name": "tokenId",
              "type": "uint256"
            },
            {
              "internalType": "string",
              "name": "uri",
              "type": "string"
            },
            {
              "internalType": "address",
              "name": "mintedBy",
              "type": "address"
            },
            {
              "internalType": "address",
              "name": "owner",
              "type": "address"
            },
            {
              "internalType": "address",
              "name": "soldBy",
              "type": "address"
            },
            {
              "internalType": "uint256",
              "name": "validUntil",
              "type": "uint256"
            },
            {
              "internalType": "uint256",
              "name": "redemptionLimit",
              "type": "uint256"
            },
            {
              "internalType": "uint256",
              "name": "redemptionCount",
              "type": "uint256"
            }
          ],
          "internalType": "struct Warranty.warrantyNFT[]",
          "name": "",
          "type": "tuple[]"
        }
      ],
      "stateMutability": "view",
      "type": "function"
    },
    {
      "inputs": [
        {
          "internalType": "uint256",
          "name": "tokenId",
          "type": "uint256"
        }
      ],
      "name": "getApproved",
      "outputs": [
        {
          "internalType": "address",
          "name": "",
          "type": "address"
        }
      ],
      "stateMutability": "view",
      "type": "function"
    },
    {
      "inputs": [
        {
          "internalType": "bytes32",
          "name": "role",
          "type": "bytes32"
        }
      ],
      "name": "getRoleAdmin",
      "outputs": [
        {
          "internalType": "bytes32",
          "name": "",
          "type": "bytes32"
        }
      ],
      "stateMutability": "view",
      "type": "function"
    },
    {
      "inputs": [
        {
          "internalType": "bytes32",
          "name": "role",
          "type": "bytes32"
        },
        {
          "internalType": "address",
          "name": "account",
          "type": "address"
        }
      ],
      "name": "grantRole",
      "outputs": [],
      "stateMutability": "nonpayable",
      "type": "function"
    },
    {
      "inputs": [
        {
          "internalType": "bytes32",
          "name": "role",
          "type": "bytes32"
        },
        {
          "internalType": "address",
          "name": "account",
          "type": "address"
        }
      ],
      "name": "hasRole",
      "outputs": [
        {
          "internalType": "bool",
          "name": "",
          "type": "bool"
        }
      ],
      "stateMutability": "view",
      "type": "function"
    },
    {
      "inputs": [
        {
          "internalType": "address",
          "name": "owner",
          "type": "address"
        },
        {
          "internalType": "address",
          "name": "operator",
          "type": "address"
        }
      ],
      "name": "isApprovedForAll",
      "outputs": [
        {
          "internalType": "bool",
          "name": "",
          "type": "bool"
        }
      ],
      "stateMutability": "view",
      "type": "function"
    },
    {
      "inputs": [],
      "name": "name",
      "outputs": [
        {
          "internalType": "string",
          "name": "",
          "type": "string"
        }
      ],
      "stateMutability": "view",
      "type": "function"
    },
    {
      "inputs": [
        {
          "internalType": "uint256",
          "name": "tokenId",
          "type": "uint256"
        }
      ],
      "name": "ownerOf",
      "outputs": [
        {
          "internalType": "address",
          "name": "",
          "type": "address"
        }
      ],
      "stateMutability": "view",
      "type": "function"
    },
    {
      "inputs": [
        {
          "internalType": "address",
          "name": "_to",
          "type": "address"
        }
      ],
      "name": "removeAdmin",
      "outputs": [],
      "stateMutability": "nonpayable",
      "type": "function"
    },
    {
      "inputs": [
        {
          "internalType": "address",
          "name": "_to",
          "type": "address"
        }
      ],
      "name": "removeSeller",
      "outputs": [],
      "stateMutability": "nonpayable",
      "type": "function"
    },
    {
      "inputs": [
        {
          "internalType": "bytes32",
          "name": "role",
          "type": "bytes32"
        },
        {
          "internalType": "address",
          "name": "account",
          "type": "address"
        }
      ],
      "name": "renounceRole",
      "outputs": [],
      "stateMutability": "nonpayable",
      "type": "function"
    },
    {
      "inputs": [
        {
          "internalType": "uint256",
          "name": "_tokenId",
          "type": "uint256"
        },
        {
          "internalType": "address",
          "name": "_to",
          "type": "address"
        }
      ],
      "name": "resellWarrantyNft",
      "outputs": [],
      "stateMutability": "nonpayable",
      "type": "function"
    },
    {
      "inputs": [
        {
          "internalType": "bytes32",
          "name": "role",
          "type": "bytes32"
        },
        {
          "internalType": "address",
          "name": "account",
          "type": "address"
        }
      ],
      "name": "revokeRole",
      "outputs": [],
      "stateMutability": "nonpayable",
      "type": "function"
    },
    {
      "inputs": [
        {
          "internalType": "address",
          "name": "from",
          "type": "address"
        },
        {
          "internalType": "address",
          "name": "to",
          "type": "address"
        },
        {
          "internalType": "uint256",
          "name": "tokenId",
          "type": "uint256"
        }
      ],
      "name": "safeTransferFrom",
      "outputs": [],
      "stateMutability": "nonpayable",
      "type": "function"
    },
    {
      "inputs": [
        {
          "internalType": "address",
          "name": "from",
          "type": "address"
        },
        {
          "internalType": "address",
          "name": "to",
          "type": "address"
        },
        {
          "internalType": "uint256",
          "name": "tokenId",
          "type": "uint256"
        },
        {
          "internalType": "bytes",
          "name": "data",
          "type": "bytes"
        }
      ],
      "name": "safeTransferFrom",
      "outputs": [],
      "stateMutability": "nonpayable",
      "type": "function"
    },
    {
      "inputs": [
        {
          "internalType": "address",
          "name": "operator",
          "type": "address"
        },
        {
          "internalType": "bool",
          "name": "approved",
          "type": "bool"
        }
      ],
      "name": "setApprovalForAll",
      "outputs": [],
      "stateMutability": "nonpayable",
      "type": "function"
    },
    {
      "inputs": [
        {
          "internalType": "bytes4",
          "name": "interfaceId",
          "type": "bytes4"
        }
      ],
      "name": "supportsInterface",
      "outputs": [
        {
          "internalType": "bool",
          "name": "",
          "type": "bool"
        }
      ],
      "stateMutability": "view",
      "type": "function"
    },
    {
      "inputs": [],
      "name": "symbol",
      "outputs": [
        {
          "internalType": "string",
          "name": "",
          "type": "string"
        }
      ],
      "stateMutability": "view",
      "type": "function"
    },
    {
      "inputs": [
        {
          "internalType": "uint256",
          "name": "tokenId",
          "type": "uint256"
        }
      ],
      "name": "tokenURI",
      "outputs": [
        {
          "internalType": "string",
          "name": "",
          "type": "string"
        }
      ],
      "stateMutability": "view",
      "type": "function"
    },
    {
      "inputs": [
        {
          "internalType": "address",
          "name": "from",
          "type": "address"
        },
        {
          "internalType": "address",
          "name": "to",
          "type": "address"
        },
        {
          "internalType": "uint256",
          "name": "tokenId",
          "type": "uint256"
        }
      ],
      "name": "transferFrom",
      "outputs": [],
      "stateMutability": "nonpayable",
      "type": "function"
    },
    {
      "inputs": [
        {
          "internalType": "uint256",
          "name": "_tokenId",
          "type": "uint256"
        }
      ],
      "name": "validateNft",
      "outputs": [
        {
          "internalType": "bool",
          "name": "",
          "type": "bool"
        }
      ],
      "stateMutability": "nonpayable",
      "type": "function"
    }
  ],
  "bytecode": "0x60806040523480156200001157600080fd5b506040518060400160405280600f81526020017f57617272616e747920546f6b656e7300000000000000000000000000000000008152506040518060400160405280600481526020017f574154540000000000000000000000000000000000000000000000000000000081525081600090805190602001906200009692919062000248565b508060019080519060200190620000af92919062000248565b505050620000c76000801b33620000cd60201b60201c565b6200035d565b620000df8282620000e360201b60201c565b5050565b620000f58282620001d560201b60201c565b620001d15760016007600084815260200190815260200160002060000160008373ffffffffffffffffffffffffffffffffffffffff1673ffffffffffffffffffffffffffffffffffffffff16815260200190815260200160002060006101000a81548160ff021916908315150217905550620001766200024060201b60201c565b73ffffffffffffffffffffffffffffffffffffffff168173ffffffffffffffffffffffffffffffffffffffff16837f2f8788117e7eff1d82e926ec794901d17c78024a50270940304540a733656f0d60405160405180910390a45b5050565b60006007600084815260200190815260200160002060000160008373ffffffffffffffffffffffffffffffffffffffff1673ffffffffffffffffffffffffffffffffffffffff16815260200190815260200160002060009054906101000a900460ff16905092915050565b600033905090565b828054620002569062000327565b90600052602060002090601f0160209004810192826200027a5760008555620002c6565b82601f106200029557805160ff1916838001178555620002c6565b82800160010185558215620002c6579182015b82811115620002c5578251825591602001919060010190620002a8565b5b509050620002d59190620002d9565b5090565b5b80821115620002f4576000816000905550600101620002da565b5090565b7f4e487b7100000000000000000000000000000000000000000000000000000000600052602260045260246000fd5b600060028204905060018216806200034057607f821691505b60208210811415620003575762000356620002f8565b5b50919050565b615551806200036d6000396000f3fe608060405234801561001057600080fd5b50600436106101f05760003560e01c80637cb9cf541161010f578063bbba3e1a116100a2578063dbe4613d11610071578063dbe4613d146105d7578063dc47f29c146105f5578063e985e9c514610625578063fdc7aea614610655576101f0565b8063bbba3e1a1461053f578063bc7ff2741461056f578063c87b56dd1461058b578063d547741f146105bb576101f0565b8063a217fddf116100de578063a217fddf146104cd578063a22cb465146104eb578063a6ac9aa914610507578063b88d4fde14610523576101f0565b80637cb9cf541461043357806391d148541461044f57806395d89b411461047f5780639d2c075d1461049d576101f0565b806324f943461161018757806342842e0e1161015657806342842e0e146103995780636352211e146103b557806370a08231146103e557806375b238fc14610415576101f0565b806324f94346146103155780632f2ff15d1461034557806336568abe146103615780633da7d2ed1461037d576101f0565b80631785f53c116101c35780631785f53c1461028f578063202e3740146102ab57806323b872dd146102c9578063248a9ca3146102e5576101f0565b806301ffc9a7146101f557806306fdde0314610225578063081812fc14610243578063095ea7b314610273575b600080fd5b61020f600480360381019061020a9190613979565b610685565b60405161021c91906139c1565b60405180910390f35b61022d610697565b60405161023a9190613a75565b60405180910390f35b61025d60048036038101906102589190613acd565b610729565b60405161026a9190613b3b565b60405180910390f35b61028d60048036038101906102889190613b82565b61076f565b005b6102a960048036038101906102a49190613bc2565b610887565b005b6102b3610924565b6040516102c09190613dc9565b60405180910390f35b6102e360048036038101906102de9190613deb565b610cf4565b005b6102ff60048036038101906102fa9190613e74565b610d54565b60405161030c9190613eb0565b60405180910390f35b61032f600480360381019061032a9190613acd565b610d74565b60405161033c91906139c1565b60405180910390f35b61035f600480360381019061035a9190613ecb565b610e94565b005b61037b60048036038101906103769190613ecb565b610eb5565b005b61039760048036038101906103929190613bc2565b610f38565b005b6103b360048036038101906103ae9190613deb565b610f65565b005b6103cf60048036038101906103ca9190613acd565b610f85565b6040516103dc9190613b3b565b60405180910390f35b6103ff60048036038101906103fa9190613bc2565b611037565b60405161040c9190613f1a565b60405180910390f35b61041d6110ef565b60405161042a9190613eb0565b60405180910390f35b61044d60048036038101906104489190613bc2565b611113565b005b61046960048036038101906104649190613ecb565b611243565b60405161047691906139c1565b60405180910390f35b6104876112ae565b6040516104949190613a75565b60405180910390f35b6104b760048036038101906104b29190613acd565b611340565b6040516104c49190613fe5565b60405180910390f35b6104d5611530565b6040516104e29190613eb0565b60405180910390f35b61050560048036038101906105009190614033565b611537565b005b610521600480360381019061051c9190614073565b61154d565b005b61053d600480360381019061053891906141e8565b6116f9565b005b61055960048036038101906105549190613acd565b61175b565b6040516105669190613a75565b60405180910390f35b61058960048036038101906105849190613bc2565b6118ee565b005b6105a560048036038101906105a09190613acd565b6119ae565b6040516105b29190613a75565b60405180910390f35b6105d560048036038101906105d09190613ecb565b611ac1565b005b6105df611ae2565b6040516105ec9190613eb0565b60405180910390f35b61060f600480360381019061060a919061430c565b611b06565b60405161061c9190613f1a565b60405180910390f35b61063f600480360381019061063a919061438f565b611e49565b60405161064c91906139c1565b60405180910390f35b61066f600480360381019061066a9190613bc2565b611edd565b60405161067c9190613dc9565b60405180910390f35b6000610690826122af565b9050919050565b6060600080546106a6906143fe565b80601f01602080910402602001604051908101604052809291908181526020018280546106d2906143fe565b801561071f5780601f106106f45761010080835404028352916020019161071f565b820191906000526020600020905b81548152906001019060200180831161070257829003601f168201915b5050505050905090565b600061073482612329565b6004600083815260200190815260200160002060009054906101000a900473ffffffffffffffffffffffffffffffffffffffff169050919050565b600061077a82610f85565b90508073ffffffffffffffffffffffffffffffffffffffff168373ffffffffffffffffffffffffffffffffffffffff1614156107eb576040517f08c379a00000000000000000000000000000000000000000000000000000000081526004016107e2906144a2565b60405180910390fd5b8073ffffffffffffffffffffffffffffffffffffffff1661080a612374565b73ffffffffffffffffffffffffffffffffffffffff161480610839575061083881610833612374565b611e49565b5b610878576040517f08c379a000000000000000000000000000000000000000000000000000000000815260040161086f90614534565b60405180910390fd5b610882838361237c565b505050565b600115156108b57fa49807205ce4d355092ef5a8a18f56e8913cf4a201fbe287825b095693c2177583611243565b1515146108f7576040517f08c379a00000000000000000000000000000000000000000000000000000000081526004016108ee906145a0565b60405180910390fd5b6109217fa49807205ce4d355092ef5a8a18f56e8913cf4a201fbe287825b095693c2177582611ac1565b50565b606060006109326008612435565b905060008060005b838110156109db573373ffffffffffffffffffffffffffffffffffffffff166009600060018461096a91906145ef565b815260200190815260200160002060030160009054906101000a900473ffffffffffffffffffffffffffffffffffffffff1673ffffffffffffffffffffffffffffffffffffffff1614156109c8576001836109c591906145ef565b92505b80806109d390614645565b91505061093a565b5060008267ffffffffffffffff8111156109f8576109f76140bd565b5b604051908082528060200260200182016040528015610a3157816020015b610a1e6137a3565b815260200190600190039081610a165790505b50905060005b84811015610ce9573373ffffffffffffffffffffffffffffffffffffffff1660096000600184610a6791906145ef565b815260200190815260200160002060030160009054906101000a900473ffffffffffffffffffffffffffffffffffffffff1673ffffffffffffffffffffffffffffffffffffffff161415610cd6576000600182610ac491906145ef565b90506000600960008381526020019081526020016000209050806040518061010001604052908160008201548152602001600182018054610b04906143fe565b80601f0160208091040260200160405190810160405280929190818152602001828054610b30906143fe565b8015610b7d5780601f10610b5257610100808354040283529160200191610b7d565b820191906000526020600020905b815481529060010190602001808311610b6057829003601f168201915b505050505081526020016002820160009054906101000a900473ffffffffffffffffffffffffffffffffffffffff1673ffffffffffffffffffffffffffffffffffffffff1673ffffffffffffffffffffffffffffffffffffffff1681526020016003820160009054906101000a900473ffffffffffffffffffffffffffffffffffffffff1673ffffffffffffffffffffffffffffffffffffffff1673ffffffffffffffffffffffffffffffffffffffff1681526020016004820160009054906101000a900473ffffffffffffffffffffffffffffffffffffffff1673ffffffffffffffffffffffffffffffffffffffff1673ffffffffffffffffffffffffffffffffffffffff1681526020016005820154815260200160068201548152602001600782015481525050848681518110610cb957610cb861468e565b5b6020026020010181905250600185610cd191906145ef565b945050505b8080610ce190614645565b915050610a37565b508094505050505090565b610d05610cff612374565b82612443565b610d44576040517f08c379a0000000000000000000000000000000000000000000000000000000008152600401610d3b9061472f565b60405180910390fd5b610d4f8383836124d8565b505050565b600060076000838152602001908152602001600020600101549050919050565b600060011515610d838361273f565b151514610dc5576040517f08c379a0000000000000000000000000000000000000000000000000000000008152600401610dbc9061479b565b60405180910390fd5b6000600960008481526020019081526020016000206005015490508042101580610e1b57506009600084815260200190815260200160002060060154600960008581526020019081526020016000206007015410155b15610e8957610e29836127ab565b60006009600085815260200190815260200160002060030160006101000a81548173ffffffffffffffffffffffffffffffffffffffff021916908373ffffffffffffffffffffffffffffffffffffffff1602179055506000915050610e8f565b60019150505b919050565b610e9d82610d54565b610ea6816127fe565b610eb08383612812565b505050565b610ebd612374565b73ffffffffffffffffffffffffffffffffffffffff168173ffffffffffffffffffffffffffffffffffffffff1614610f2a576040517f08c379a0000000000000000000000000000000000000000000000000000000008152600401610f219061482d565b60405180910390fd5b610f3482826128f3565b5050565b610f627fa49807205ce4d355092ef5a8a18f56e8913cf4a201fbe287825b095693c2177582610e94565b50565b610f80838383604051806020016040528060008152506116f9565b505050565b6000806002600084815260200190815260200160002060009054906101000a900473ffffffffffffffffffffffffffffffffffffffff169050600073ffffffffffffffffffffffffffffffffffffffff168173ffffffffffffffffffffffffffffffffffffffff16141561102e576040517f08c379a000000000000000000000000000000000000000000000000000000000815260040161102590614899565b60405180910390fd5b80915050919050565b60008073ffffffffffffffffffffffffffffffffffffffff168273ffffffffffffffffffffffffffffffffffffffff1614156110a8576040517f08c379a000000000000000000000000000000000000000000000000000000000815260040161109f9061492b565b60405180910390fd5b600360008373ffffffffffffffffffffffffffffffffffffffff1673ffffffffffffffffffffffffffffffffffffffff168152602001908152602001600020549050919050565b7fa49807205ce4d355092ef5a8a18f56e8913cf4a201fbe287825b095693c2177581565b33600115156111427fa49807205ce4d355092ef5a8a18f56e8913cf4a201fbe287825b095693c2177583611243565b1515148061116057506001151561115c6000801b83611243565b1515145b1561120457600115156111937f43f25613eb2f15fb17222a5d424ca2655743e71265d98e4b93c05e5fb589ecde84611243565b1515146111d5576040517f08c379a00000000000000000000000000000000000000000000000000000000081526004016111cc90614997565b60405180910390fd5b6111ff7f43f25613eb2f15fb17222a5d424ca2655743e71265d98e4b93c05e5fb589ecde836128f3565b61123f565b6040517f08c379a000000000000000000000000000000000000000000000000000000000815260040161123690614a03565b60405180910390fd5b5050565b60006007600084815260200190815260200160002060000160008373ffffffffffffffffffffffffffffffffffffffff1673ffffffffffffffffffffffffffffffffffffffff16815260200190815260200160002060009054906101000a900460ff16905092915050565b6060600180546112bd906143fe565b80601f01602080910402602001604051908101604052809291908181526020018280546112e9906143fe565b80156113365780601f1061130b57610100808354040283529160200191611336565b820191906000526020600020905b81548152906001019060200180831161131957829003601f168201915b5050505050905090565b6113486137a3565b6000600960008481526020019081526020016000206040518061010001604052908160008201548152602001600182018054611383906143fe565b80601f01602080910402602001604051908101604052809291908181526020018280546113af906143fe565b80156113fc5780601f106113d1576101008083540402835291602001916113fc565b820191906000526020600020905b8154815290600101906020018083116113df57829003601f168201915b505050505081526020016002820160009054906101000a900473ffffffffffffffffffffffffffffffffffffffff1673ffffffffffffffffffffffffffffffffffffffff1673ffffffffffffffffffffffffffffffffffffffff1681526020016003820160009054906101000a900473ffffffffffffffffffffffffffffffffffffffff1673ffffffffffffffffffffffffffffffffffffffff1673ffffffffffffffffffffffffffffffffffffffff1681526020016004820160009054906101000a900473ffffffffffffffffffffffffffffffffffffffff1673ffffffffffffffffffffffffffffffffffffffff1673ffffffffffffffffffffffffffffffffffffffff1681526020016005820154815260200160068201548152602001600782015481525050905080915050919050565b6000801b81565b611549611542612374565b83836129d5565b5050565b3373ffffffffffffffffffffffffffffffffffffffff166009600084815260200190815260200160002060030160009054906101000a900473ffffffffffffffffffffffffffffffffffffffff1673ffffffffffffffffffffffffffffffffffffffff16146115f1576040517f08c379a00000000000000000000000000000000000000000000000000000000081526004016115e890614a95565b60405180910390fd5b600115156115fe83610d74565b151514611640576040517f08c379a000000000000000000000000000000000000000000000000000000000815260040161163790614b01565b60405180910390fd5b336009600084815260200190815260200160002060040160006101000a81548173ffffffffffffffffffffffffffffffffffffffff021916908373ffffffffffffffffffffffffffffffffffffffff160217905550806009600084815260200190815260200160002060030160006101000a81548173ffffffffffffffffffffffffffffffffffffffff021916908373ffffffffffffffffffffffffffffffffffffffff1602179055506116f53382846124d8565b5050565b61170a611704612374565b83612443565b611749576040517f08c379a00000000000000000000000000000000000000000000000000000000081526004016117409061472f565b60405180910390fd5b61175584848484612b42565b50505050565b60603373ffffffffffffffffffffffffffffffffffffffff166009600084815260200190815260200160002060020160009054906101000a900473ffffffffffffffffffffffffffffffffffffffff1673ffffffffffffffffffffffffffffffffffffffff1614611801576040517f08c379a00000000000000000000000000000000000000000000000000000000081526004016117f890614b93565b60405180910390fd5b6001151561180e83610d74565b151514611850576040517f08c379a000000000000000000000000000000000000000000000000000000000815260040161184790614b01565b60405180910390fd5b61187a60016009600085815260200190815260200160002060070154612b9e90919063ffffffff16565b5060006118c46118bf60096000868152602001908152602001600020600701546009600087815260200190815260200160002060060154612bb490919063ffffffff16565b612bca565b9050806040516020016118d79190614c87565b604051602081830303815290604052915050919050565b336001151561191d7fa49807205ce4d355092ef5a8a18f56e8913cf4a201fbe287825b095693c2177583611243565b1515148061193b5750600115156119376000801b83611243565b1515145b1561196f5761196a7f43f25613eb2f15fb17222a5d424ca2655743e71265d98e4b93c05e5fb589ecde83612812565b6119aa565b6040517f08c379a00000000000000000000000000000000000000000000000000000000081526004016119a190614a03565b60405180910390fd5b5050565b60606119b982612329565b60006006600084815260200190815260200160002080546119d9906143fe565b80601f0160208091040260200160405190810160405280929190818152602001828054611a05906143fe565b8015611a525780601f10611a2757610100808354040283529160200191611a52565b820191906000526020600020905b815481529060010190602001808311611a3557829003601f168201915b505050505090506000611a63612d2b565b9050600081511415611a79578192505050611abc565b600082511115611aae578082604051602001611a96929190614cb4565b60405160208183030381529060405292505050611abc565b611ab784612d42565b925050505b919050565b611aca82610d54565b611ad3816127fe565b611add83836128f3565b505050565b7f43f25613eb2f15fb17222a5d424ca2655743e71265d98e4b93c05e5fb589ecde81565b60003360011515611b377f43f25613eb2f15fb17222a5d424ca2655743e71265d98e4b93c05e5fb589ecde83611243565b15151480611b55575060011515611b516000801b83611243565b1515145b80611b8d575060011515611b897fa49807205ce4d355092ef5a8a18f56e8913cf4a201fbe287825b095693c2177583611243565b1515145b15611e0557611b9c6008612daa565b6000611ba86008612435565b9050611bb48782612dc0565b611bbe8187612dde565b6001611bc988611037565b10611be657611be46201fa4086612b9e90919063ffffffff16565b505b6000611bfc603c87612e5290919063ffffffff16565b42611c0791906145ef565b90506040518061010001604052808381526020018881526020013373ffffffffffffffffffffffffffffffffffffffff1681526020018973ffffffffffffffffffffffffffffffffffffffff1681526020013373ffffffffffffffffffffffffffffffffffffffff168152602001828152602001868152602001600081525060096000848152602001908152602001600020600082015181600001556020820151816001019080519060200190611cbf92919061382a565b5060408201518160020160006101000a81548173ffffffffffffffffffffffffffffffffffffffff021916908373ffffffffffffffffffffffffffffffffffffffff16021790555060608201518160030160006101000a81548173ffffffffffffffffffffffffffffffffffffffff021916908373ffffffffffffffffffffffffffffffffffffffff16021790555060808201518160040160006101000a81548173ffffffffffffffffffffffffffffffffffffffff021916908373ffffffffffffffffffffffffffffffffffffffff16021790555060a0820151816005015560c0820151816006015560e08201518160070155905050817fb850558a3b78bd20aeb408648b7ca0761880447329dd332002aafadc8c7713e988338b33868b6000604051611df39796959493929190614d1d565b60405180910390a28193505050611e40565b6040517f08c379a0000000000000000000000000000000000000000000000000000000008152600401611e3790614e05565b60405180910390fd5b50949350505050565b6000600560008473ffffffffffffffffffffffffffffffffffffffff1673ffffffffffffffffffffffffffffffffffffffff16815260200190815260200160002060008373ffffffffffffffffffffffffffffffffffffffff1673ffffffffffffffffffffffffffffffffffffffff16815260200190815260200160002060009054906101000a900460ff16905092915050565b60606000611eeb6008612435565b905060008060005b83811015611f94578573ffffffffffffffffffffffffffffffffffffffff1660096000600184611f2391906145ef565b815260200190815260200160002060020160009054906101000a900473ffffffffffffffffffffffffffffffffffffffff1673ffffffffffffffffffffffffffffffffffffffff161415611f8157600183611f7e91906145ef565b92505b8080611f8c90614645565b915050611ef3565b5060008267ffffffffffffffff811115611fb157611fb06140bd565b5b604051908082528060200260200182016040528015611fea57816020015b611fd76137a3565b815260200190600190039081611fcf5790505b50905060005b848110156122a2578673ffffffffffffffffffffffffffffffffffffffff166009600060018461202091906145ef565b815260200190815260200160002060020160009054906101000a900473ffffffffffffffffffffffffffffffffffffffff1673ffffffffffffffffffffffffffffffffffffffff16141561228f57600060018261207d91906145ef565b905060006009600083815260200190815260200160002090508060405180610100016040529081600082015481526020016001820180546120bd906143fe565b80601f01602080910402602001604051908101604052809291908181526020018280546120e9906143fe565b80156121365780601f1061210b57610100808354040283529160200191612136565b820191906000526020600020905b81548152906001019060200180831161211957829003601f168201915b505050505081526020016002820160009054906101000a900473ffffffffffffffffffffffffffffffffffffffff1673ffffffffffffffffffffffffffffffffffffffff1673ffffffffffffffffffffffffffffffffffffffff1681526020016003820160009054906101000a900473ffffffffffffffffffffffffffffffffffffffff1673ffffffffffffffffffffffffffffffffffffffff1673ffffffffffffffffffffffffffffffffffffffff1681526020016004820160009054906101000a900473ffffffffffffffffffffffffffffffffffffffff1673ffffffffffffffffffffffffffffffffffffffff1673ffffffffffffffffffffffffffffffffffffffff16815260200160058201548152602001600682015481526020016007820154815250508486815181106122725761227161468e565b5b602002602001018190525060018561228a91906145ef565b945050505b808061229a90614645565b915050611ff0565b5080945050505050919050565b60007f7965db0b000000000000000000000000000000000000000000000000000000007bffffffffffffffffffffffffffffffffffffffffffffffffffffffff1916827bffffffffffffffffffffffffffffffffffffffffffffffffffffffff19161480612322575061232182612e68565b5b9050919050565b6123328161273f565b612371576040517f08c379a000000000000000000000000000000000000000000000000000000000815260040161236890614899565b60405180910390fd5b50565b600033905090565b816004600083815260200190815260200160002060006101000a81548173ffffffffffffffffffffffffffffffffffffffff021916908373ffffffffffffffffffffffffffffffffffffffff160217905550808273ffffffffffffffffffffffffffffffffffffffff166123ef83610f85565b73ffffffffffffffffffffffffffffffffffffffff167f8c5be1e5ebec7d5bd14f71427d1e84f3dd0314c0f7b2291e5b200ac8c7c3b92560405160405180910390a45050565b600081600001549050919050565b60008061244f83610f85565b90508073ffffffffffffffffffffffffffffffffffffffff168473ffffffffffffffffffffffffffffffffffffffff16148061249157506124908185611e49565b5b806124cf57508373ffffffffffffffffffffffffffffffffffffffff166124b784610729565b73ffffffffffffffffffffffffffffffffffffffff16145b91505092915050565b8273ffffffffffffffffffffffffffffffffffffffff166124f882610f85565b73ffffffffffffffffffffffffffffffffffffffff161461254e576040517f08c379a000000000000000000000000000000000000000000000000000000000815260040161254590614e97565b60405180910390fd5b600073ffffffffffffffffffffffffffffffffffffffff168273ffffffffffffffffffffffffffffffffffffffff1614156125be576040517f08c379a00000000000000000000000000000000000000000000000000000000081526004016125b590614f29565b60405180910390fd5b6125c9838383612f4a565b6125d460008261237c565b6001600360008573ffffffffffffffffffffffffffffffffffffffff1673ffffffffffffffffffffffffffffffffffffffff16815260200190815260200160002060008282546126249190614f49565b925050819055506001600360008473ffffffffffffffffffffffffffffffffffffffff1673ffffffffffffffffffffffffffffffffffffffff168152602001908152602001600020600082825461267b91906145ef565b92505081905550816002600083815260200190815260200160002060006101000a81548173ffffffffffffffffffffffffffffffffffffffff021916908373ffffffffffffffffffffffffffffffffffffffff160217905550808273ffffffffffffffffffffffffffffffffffffffff168473ffffffffffffffffffffffffffffffffffffffff167fddf252ad1be2c89b69c2b068fc378daa952ba7f163c4a11628f55a4df523b3ef60405160405180910390a461273a838383612f4f565b505050565b60008073ffffffffffffffffffffffffffffffffffffffff166002600084815260200190815260200160002060009054906101000a900473ffffffffffffffffffffffffffffffffffffffff1673ffffffffffffffffffffffffffffffffffffffff1614159050919050565b6127b481612f54565b60006006600083815260200190815260200160002080546127d4906143fe565b9050146127fb576006600082815260200190815260200160002060006127fa91906138b0565b5b50565b61280f8161280a612374565b613071565b50565b61281c8282611243565b6128ef5760016007600084815260200190815260200160002060000160008373ffffffffffffffffffffffffffffffffffffffff1673ffffffffffffffffffffffffffffffffffffffff16815260200190815260200160002060006101000a81548160ff021916908315150217905550612894612374565b73ffffffffffffffffffffffffffffffffffffffff168173ffffffffffffffffffffffffffffffffffffffff16837f2f8788117e7eff1d82e926ec794901d17c78024a50270940304540a733656f0d60405160405180910390a45b5050565b6128fd8282611243565b156129d15760006007600084815260200190815260200160002060000160008373ffffffffffffffffffffffffffffffffffffffff1673ffffffffffffffffffffffffffffffffffffffff16815260200190815260200160002060006101000a81548160ff021916908315150217905550612976612374565b73ffffffffffffffffffffffffffffffffffffffff168173ffffffffffffffffffffffffffffffffffffffff16837ff6391f5c32d9c69d2a47ea670b442974b53935d1edc7fd64eb21e047a839171b60405160405180910390a45b5050565b8173ffffffffffffffffffffffffffffffffffffffff168373ffffffffffffffffffffffffffffffffffffffff161415612a44576040517f08c379a0000000000000000000000000000000000000000000000000000000008152600401612a3b90614fc9565b60405180910390fd5b80600560008573ffffffffffffffffffffffffffffffffffffffff1673ffffffffffffffffffffffffffffffffffffffff16815260200190815260200160002060008473ffffffffffffffffffffffffffffffffffffffff1673ffffffffffffffffffffffffffffffffffffffff16815260200190815260200160002060006101000a81548160ff0219169083151502179055508173ffffffffffffffffffffffffffffffffffffffff168373ffffffffffffffffffffffffffffffffffffffff167f17307eab39ab6107e8899845ad3d59bd9653f200f220920489ca2b5937696c3183604051612b3591906139c1565b60405180910390a3505050565b612b4d8484846124d8565b612b598484848461310e565b612b98576040517f08c379a0000000000000000000000000000000000000000000000000000000008152600401612b8f9061505b565b60405180910390fd5b50505050565b60008183612bac91906145ef565b905092915050565b60008183612bc29190614f49565b905092915050565b60606000821415612c12576040518060400160405280600181526020017f30000000000000000000000000000000000000000000000000000000000000008152509050612d26565b600082905060005b60008214612c44578080612c2d90614645565b915050600a82612c3d91906150aa565b9150612c1a565b60008167ffffffffffffffff811115612c6057612c5f6140bd565b5b6040519080825280601f01601f191660200182016040528015612c925781602001600182028036833780820191505090505b5090505b60008514612d1f57600182612cab9190614f49565b9150600a85612cba91906150db565b6030612cc691906145ef565b60f81b818381518110612cdc57612cdb61468e565b5b60200101907effffffffffffffffffffffffffffffffffffffffffffffffffffffffffffff1916908160001a905350600a85612d1891906150aa565b9450612c96565b8093505050505b919050565b606060405180602001604052806000815250905090565b6060612d4d82612329565b6000612d57612d2b565b90506000815111612d775760405180602001604052806000815250612da2565b80612d8184612bca565b604051602001612d92929190614cb4565b6040516020818303038152906040525b915050919050565b6001816000016000828254019250508190555050565b612dda8282604051806020016040528060008152506132a5565b5050565b612de78261273f565b612e26576040517f08c379a0000000000000000000000000000000000000000000000000000000008152600401612e1d9061517e565b60405180910390fd5b80600660008481526020019081526020016000209080519060200190612e4d92919061382a565b505050565b60008183612e60919061519e565b905092915050565b60007f80ac58cd000000000000000000000000000000000000000000000000000000007bffffffffffffffffffffffffffffffffffffffffffffffffffffffff1916827bffffffffffffffffffffffffffffffffffffffffffffffffffffffff19161480612f3357507f5b5e139f000000000000000000000000000000000000000000000000000000007bffffffffffffffffffffffffffffffffffffffffffffffffffffffff1916827bffffffffffffffffffffffffffffffffffffffffffffffffffffffff1916145b80612f435750612f4282613300565b5b9050919050565b505050565b505050565b6000612f5f82610f85565b9050612f6d81600084612f4a565b612f7860008361237c565b6001600360008373ffffffffffffffffffffffffffffffffffffffff1673ffffffffffffffffffffffffffffffffffffffff1681526020019081526020016000206000828254612fc89190614f49565b925050819055506002600083815260200190815260200160002060006101000a81549073ffffffffffffffffffffffffffffffffffffffff021916905581600073ffffffffffffffffffffffffffffffffffffffff168273ffffffffffffffffffffffffffffffffffffffff167fddf252ad1be2c89b69c2b068fc378daa952ba7f163c4a11628f55a4df523b3ef60405160405180910390a461306d81600084612f4f565b5050565b61307b8282611243565b61310a576130a08173ffffffffffffffffffffffffffffffffffffffff16601461336a565b6130ae8360001c602061336a565b6040516020016130bf929190615290565b6040516020818303038152906040526040517f08c379a00000000000000000000000000000000000000000000000000000000081526004016131019190613a75565b60405180910390fd5b5050565b600061312f8473ffffffffffffffffffffffffffffffffffffffff166135a6565b15613298578373ffffffffffffffffffffffffffffffffffffffff1663150b7a02613158612374565b8786866040518563ffffffff1660e01b815260040161317a949392919061531f565b602060405180830381600087803b15801561319457600080fd5b505af19250505080156131c557506040513d601f19601f820116820180604052508101906131c29190615380565b60015b613248573d80600081146131f5576040519150601f19603f3d011682016040523d82523d6000602084013e6131fa565b606091505b50600081511415613240576040517f08c379a00000000000000000000000000000000000000000000000000000000081526004016132379061505b565b60405180910390fd5b805181602001fd5b63150b7a0260e01b7bffffffffffffffffffffffffffffffffffffffffffffffffffffffff1916817bffffffffffffffffffffffffffffffffffffffffffffffffffffffff19161491505061329d565b600190505b949350505050565b6132af83836135c9565b6132bc600084848461310e565b6132fb576040517f08c379a00000000000000000000000000000000000000000000000000000000081526004016132f29061505b565b60405180910390fd5b505050565b60007f01ffc9a7000000000000000000000000000000000000000000000000000000007bffffffffffffffffffffffffffffffffffffffffffffffffffffffff1916827bffffffffffffffffffffffffffffffffffffffffffffffffffffffff1916149050919050565b60606000600283600261337d919061519e565b61338791906145ef565b67ffffffffffffffff8111156133a05761339f6140bd565b5b6040519080825280601f01601f1916602001820160405280156133d25781602001600182028036833780820191505090505b5090507f30000000000000000000000000000000000000000000000000000000000000008160008151811061340a5761340961468e565b5b60200101907effffffffffffffffffffffffffffffffffffffffffffffffffffffffffffff1916908160001a9053507f78000000000000000000000000000000000000000000000000000000000000008160018151811061346e5761346d61468e565b5b60200101907effffffffffffffffffffffffffffffffffffffffffffffffffffffffffffff1916908160001a905350600060018460026134ae919061519e565b6134b891906145ef565b90505b6001811115613558577f3031323334353637383961626364656600000000000000000000000000000000600f8616601081106134fa576134f961468e565b5b1a60f81b8282815181106135115761351061468e565b5b60200101907effffffffffffffffffffffffffffffffffffffffffffffffffffffffffffff1916908160001a905350600485901c945080613551906153ad565b90506134bb565b506000841461359c576040517f08c379a000000000000000000000000000000000000000000000000000000000815260040161359390615423565b60405180910390fd5b8091505092915050565b6000808273ffffffffffffffffffffffffffffffffffffffff163b119050919050565b600073ffffffffffffffffffffffffffffffffffffffff168273ffffffffffffffffffffffffffffffffffffffff161415613639576040517f08c379a00000000000000000000000000000000000000000000000000000000081526004016136309061548f565b60405180910390fd5b6136428161273f565b15613682576040517f08c379a0000000000000000000000000000000000000000000000000000000008152600401613679906154fb565b60405180910390fd5b61368e60008383612f4a565b6001600360008473ffffffffffffffffffffffffffffffffffffffff1673ffffffffffffffffffffffffffffffffffffffff16815260200190815260200160002060008282546136de91906145ef565b92505081905550816002600083815260200190815260200160002060006101000a81548173ffffffffffffffffffffffffffffffffffffffff021916908373ffffffffffffffffffffffffffffffffffffffff160217905550808273ffffffffffffffffffffffffffffffffffffffff16600073ffffffffffffffffffffffffffffffffffffffff167fddf252ad1be2c89b69c2b068fc378daa952ba7f163c4a11628f55a4df523b3ef60405160405180910390a461379f60008383612f4f565b5050565b6040518061010001604052806000815260200160608152602001600073ffffffffffffffffffffffffffffffffffffffff168152602001600073ffffffffffffffffffffffffffffffffffffffff168152602001600073ffffffffffffffffffffffffffffffffffffffff1681526020016000815260200160008152602001600081525090565b828054613836906143fe565b90600052602060002090601f016020900481019282613858576000855561389f565b82601f1061387157805160ff191683800117855561389f565b8280016001018555821561389f579182015b8281111561389e578251825591602001919060010190613883565b5b5090506138ac91906138f0565b5090565b5080546138bc906143fe565b6000825580601f106138ce57506138ed565b601f0160209004906000526020600020908101906138ec91906138f0565b5b50565b5b808211156139095760008160009055506001016138f1565b5090565b6000604051905090565b600080fd5b600080fd5b60007fffffffff0000000000000000000000000000000000000000000000000000000082169050919050565b61395681613921565b811461396157600080fd5b50565b6000813590506139738161394d565b92915050565b60006020828403121561398f5761398e613917565b5b600061399d84828501613964565b91505092915050565b60008115159050919050565b6139bb816139a6565b82525050565b60006020820190506139d660008301846139b2565b92915050565b600081519050919050565b600082825260208201905092915050565b60005b83811015613a165780820151818401526020810190506139fb565b83811115613a25576000848401525b50505050565b6000601f19601f8301169050919050565b6000613a47826139dc565b613a5181856139e7565b9350613a618185602086016139f8565b613a6a81613a2b565b840191505092915050565b60006020820190508181036000830152613a8f8184613a3c565b905092915050565b6000819050919050565b613aaa81613a97565b8114613ab557600080fd5b50565b600081359050613ac781613aa1565b92915050565b600060208284031215613ae357613ae2613917565b5b6000613af184828501613ab8565b91505092915050565b600073ffffffffffffffffffffffffffffffffffffffff82169050919050565b6000613b2582613afa565b9050919050565b613b3581613b1a565b82525050565b6000602082019050613b506000830184613b2c565b92915050565b613b5f81613b1a565b8114613b6a57600080fd5b50565b600081359050613b7c81613b56565b92915050565b60008060408385031215613b9957613b98613917565b5b6000613ba785828601613b6d565b9250506020613bb885828601613ab8565b9150509250929050565b600060208284031215613bd857613bd7613917565b5b6000613be684828501613b6d565b91505092915050565b600081519050919050565b600082825260208201905092915050565b6000819050602082019050919050565b613c2481613a97565b82525050565b600082825260208201905092915050565b6000613c46826139dc565b613c508185613c2a565b9350613c608185602086016139f8565b613c6981613a2b565b840191505092915050565b613c7d81613b1a565b82525050565b600061010083016000830151613c9c6000860182613c1b565b5060208301518482036020860152613cb48282613c3b565b9150506040830151613cc96040860182613c74565b506060830151613cdc6060860182613c74565b506080830151613cef6080860182613c74565b5060a0830151613d0260a0860182613c1b565b5060c0830151613d1560c0860182613c1b565b5060e0830151613d2860e0860182613c1b565b508091505092915050565b6000613d3f8383613c83565b905092915050565b6000602082019050919050565b6000613d5f82613bef565b613d698185613bfa565b935083602082028501613d7b85613c0b565b8060005b85811015613db75784840389528151613d988582613d33565b9450613da383613d47565b925060208a01995050600181019050613d7f565b50829750879550505050505092915050565b60006020820190508181036000830152613de38184613d54565b905092915050565b600080600060608486031215613e0457613e03613917565b5b6000613e1286828701613b6d565b9350506020613e2386828701613b6d565b9250506040613e3486828701613ab8565b9150509250925092565b6000819050919050565b613e5181613e3e565b8114613e5c57600080fd5b50565b600081359050613e6e81613e48565b92915050565b600060208284031215613e8a57613e89613917565b5b6000613e9884828501613e5f565b91505092915050565b613eaa81613e3e565b82525050565b6000602082019050613ec56000830184613ea1565b92915050565b60008060408385031215613ee257613ee1613917565b5b6000613ef085828601613e5f565b9250506020613f0185828601613b6d565b9150509250929050565b613f1481613a97565b82525050565b6000602082019050613f2f6000830184613f0b565b92915050565b600061010083016000830151613f4e6000860182613c1b565b5060208301518482036020860152613f668282613c3b565b9150506040830151613f7b6040860182613c74565b506060830151613f8e6060860182613c74565b506080830151613fa16080860182613c74565b5060a0830151613fb460a0860182613c1b565b5060c0830151613fc760c0860182613c1b565b5060e0830151613fda60e0860182613c1b565b508091505092915050565b60006020820190508181036000830152613fff8184613f35565b905092915050565b614010816139a6565b811461401b57600080fd5b50565b60008135905061402d81614007565b92915050565b6000806040838503121561404a57614049613917565b5b600061405885828601613b6d565b92505060206140698582860161401e565b9150509250929050565b6000806040838503121561408a57614089613917565b5b600061409885828601613ab8565b92505060206140a985828601613b6d565b9150509250929050565b600080fd5b600080fd5b7f4e487b7100000000000000000000000000000000000000000000000000000000600052604160045260246000fd5b6140f582613a2b565b810181811067ffffffffffffffff82111715614114576141136140bd565b5b80604052505050565b600061412761390d565b905061413382826140ec565b919050565b600067ffffffffffffffff821115614153576141526140bd565b5b61415c82613a2b565b9050602081019050919050565b82818337600083830152505050565b600061418b61418684614138565b61411d565b9050828152602081018484840111156141a7576141a66140b8565b5b6141b2848285614169565b509392505050565b600082601f8301126141cf576141ce6140b3565b5b81356141df848260208601614178565b91505092915050565b6000806000806080858703121561420257614201613917565b5b600061421087828801613b6d565b945050602061422187828801613b6d565b935050604061423287828801613ab8565b925050606085013567ffffffffffffffff8111156142535761425261391c565b5b61425f878288016141ba565b91505092959194509250565b600067ffffffffffffffff821115614286576142856140bd565b5b61428f82613a2b565b9050602081019050919050565b60006142af6142aa8461426b565b61411d565b9050828152602081018484840111156142cb576142ca6140b8565b5b6142d6848285614169565b509392505050565b600082601f8301126142f3576142f26140b3565b5b813561430384826020860161429c565b91505092915050565b6000806000806080858703121561432657614325613917565b5b600061433487828801613b6d565b945050602085013567ffffffffffffffff8111156143555761435461391c565b5b614361878288016142de565b935050604061437287828801613ab8565b925050606061438387828801613ab8565b91505092959194509250565b600080604083850312156143a6576143a5613917565b5b60006143b485828601613b6d565b92505060206143c585828601613b6d565b9150509250929050565b7f4e487b7100000000000000000000000000000000000000000000000000000000600052602260045260246000fd5b6000600282049050600182168061441657607f821691505b6020821081141561442a576144296143cf565b5b50919050565b7f4552433732313a20617070726f76616c20746f2063757272656e74206f776e6560008201527f7200000000000000000000000000000000000000000000000000000000000000602082015250565b600061448c6021836139e7565b915061449782614430565b604082019050919050565b600060208201905081810360008301526144bb8161447f565b9050919050565b7f4552433732313a20617070726f76652063616c6c6572206973206e6f7420746f60008201527f6b656e206f776e6572206e6f7220617070726f76656420666f7220616c6c0000602082015250565b600061451e603e836139e7565b9150614529826144c2565b604082019050919050565b6000602082019050818103600083015261454d81614511565b9050919050565b7f41646d696e20646f6573206e6f74206578697374000000000000000000000000600082015250565b600061458a6014836139e7565b915061459582614554565b602082019050919050565b600060208201905081810360008301526145b98161457d565b9050919050565b7f4e487b7100000000000000000000000000000000000000000000000000000000600052601160045260246000fd5b60006145fa82613a97565b915061460583613a97565b9250827fffffffffffffffffffffffffffffffffffffffffffffffffffffffffffffffff0382111561463a576146396145c0565b5b828201905092915050565b600061465082613a97565b91507fffffffffffffffffffffffffffffffffffffffffffffffffffffffffffffffff821415614683576146826145c0565b5b600182019050919050565b7f4e487b7100000000000000000000000000000000000000000000000000000000600052603260045260246000fd5b7f4552433732313a2063616c6c6572206973206e6f7420746f6b656e206f776e6560008201527f72206e6f7220617070726f766564000000000000000000000000000000000000602082015250565b6000614719602e836139e7565b9150614724826146bd565b604082019050919050565b600060208201905081810360008301526147488161470c565b9050919050565b7f546f6b656e20646f6573206e6f74206578697374000000000000000000000000600082015250565b60006147856014836139e7565b91506147908261474f565b602082019050919050565b600060208201905081810360008301526147b481614778565b9050919050565b7f416363657373436f6e74726f6c3a2063616e206f6e6c792072656e6f756e636560008201527f20726f6c657320666f722073656c660000000000000000000000000000000000602082015250565b6000614817602f836139e7565b9150614822826147bb565b604082019050919050565b600060208201905081810360008301526148468161480a565b9050919050565b7f4552433732313a20696e76616c696420746f6b656e2049440000000000000000600082015250565b60006148836018836139e7565b915061488e8261484d565b602082019050919050565b600060208201905081810360008301526148b281614876565b9050919050565b7f4552433732313a2061646472657373207a65726f206973206e6f74206120766160008201527f6c6964206f776e65720000000000000000000000000000000000000000000000602082015250565b60006149156029836139e7565b9150614920826148b9565b604082019050919050565b6000602082019050818103600083015261494481614908565b9050919050565b7f53656c6c657220646f6573206e6f742065786973740000000000000000000000600082015250565b60006149816015836139e7565b915061498c8261494b565b602082019050919050565b600060208201905081810360008301526149b081614974565b9050919050565b7f596f7520646f6e742068617665207468652041646d696e207269676874730000600082015250565b60006149ed601e836139e7565b91506149f8826149b7565b602082019050919050565b60006020820190508181036000830152614a1c816149e0565b9050919050565b7f4f6e6c79206974656d206f776e65722063616e20706572666f726d207468697360008201527f206f7065726174696f6e00000000000000000000000000000000000000000000602082015250565b6000614a7f602a836139e7565b9150614a8a82614a23565b604082019050919050565b60006020820190508181036000830152614aae81614a72565b9050919050565b7f57617272616e7479204578706972656400000000000000000000000000000000600082015250565b6000614aeb6010836139e7565b9150614af682614ab5565b602082019050919050565b60006020820190508181036000830152614b1a81614ade565b9050919050565b7f4f6e6c792053656c6c65722063616e20706572666f726d2074686973206f706560008201527f726174696f6e0000000000000000000000000000000000000000000000000000602082015250565b6000614b7d6026836139e7565b9150614b8882614b21565b604082019050919050565b60006020820190508181036000830152614bac81614b70565b9050919050565b600081905092915050565b7f57617272616e747920417661696c65642e20596f752068617665200000000000600082015250565b6000614bf4601b83614bb3565b9150614bff82614bbe565b601b82019050919050565b6000614c15826139dc565b614c1f8185614bb3565b9350614c2f8185602086016139f8565b80840191505092915050565b7f206d6f72652077617272616e747920726564656d7074696f6e73206c65667400600082015250565b6000614c71601f83614bb3565b9150614c7c82614c3b565b601f82019050919050565b6000614c9282614be7565b9150614c9e8284614c0a565b9150614ca982614c64565b915081905092915050565b6000614cc08285614c0a565b9150614ccc8284614c0a565b91508190509392505050565b6000819050919050565b6000819050919050565b6000614d07614d02614cfd84614cd8565b614ce2565b613a97565b9050919050565b614d1781614cec565b82525050565b600060e0820190508181036000830152614d37818a613a3c565b9050614d466020830189613b2c565b614d536040830188613b2c565b614d606060830187613b2c565b614d6d6080830186613f0b565b614d7a60a0830185613f0b565b614d8760c0830184614d0e565b98975050505050505050565b7f596f7520646f6e742068617665207468652072696768747320746f206372656160008201527f74652057617272616e7479000000000000000000000000000000000000000000602082015250565b6000614def602b836139e7565b9150614dfa82614d93565b604082019050919050565b60006020820190508181036000830152614e1e81614de2565b9050919050565b7f4552433732313a207472616e736665722066726f6d20696e636f72726563742060008201527f6f776e6572000000000000000000000000000000000000000000000000000000602082015250565b6000614e816025836139e7565b9150614e8c82614e25565b604082019050919050565b60006020820190508181036000830152614eb081614e74565b9050919050565b7f4552433732313a207472616e7366657220746f20746865207a65726f2061646460008201527f7265737300000000000000000000000000000000000000000000000000000000602082015250565b6000614f136024836139e7565b9150614f1e82614eb7565b604082019050919050565b60006020820190508181036000830152614f4281614f06565b9050919050565b6000614f5482613a97565b9150614f5f83613a97565b925082821015614f7257614f716145c0565b5b828203905092915050565b7f4552433732313a20617070726f766520746f2063616c6c657200000000000000600082015250565b6000614fb36019836139e7565b9150614fbe82614f7d565b602082019050919050565b60006020820190508181036000830152614fe281614fa6565b9050919050565b7f4552433732313a207472616e7366657220746f206e6f6e20455243373231526560008201527f63656976657220696d706c656d656e7465720000000000000000000000000000602082015250565b60006150456032836139e7565b915061505082614fe9565b604082019050919050565b6000602082019050818103600083015261507481615038565b9050919050565b7f4e487b7100000000000000000000000000000000000000000000000000000000600052601260045260246000fd5b60006150b582613a97565b91506150c083613a97565b9250826150d0576150cf61507b565b5b828204905092915050565b60006150e682613a97565b91506150f183613a97565b9250826151015761510061507b565b5b828206905092915050565b7f45524337323155524953746f726167653a2055524920736574206f66206e6f6e60008201527f6578697374656e7420746f6b656e000000000000000000000000000000000000602082015250565b6000615168602e836139e7565b91506151738261510c565b604082019050919050565b600060208201905081810360008301526151978161515b565b9050919050565b60006151a982613a97565b91506151b483613a97565b9250817fffffffffffffffffffffffffffffffffffffffffffffffffffffffffffffffff04831182151516156151ed576151ec6145c0565b5b828202905092915050565b7f416363657373436f6e74726f6c3a206163636f756e7420000000000000000000600082015250565b600061522e601783614bb3565b9150615239826151f8565b601782019050919050565b7f206973206d697373696e6720726f6c6520000000000000000000000000000000600082015250565b600061527a601183614bb3565b915061528582615244565b601182019050919050565b600061529b82615221565b91506152a78285614c0a565b91506152b28261526d565b91506152be8284614c0a565b91508190509392505050565b600081519050919050565b600082825260208201905092915050565b60006152f1826152ca565b6152fb81856152d5565b935061530b8185602086016139f8565b61531481613a2b565b840191505092915050565b60006080820190506153346000830187613b2c565b6153416020830186613b2c565b61534e6040830185613f0b565b818103606083015261536081846152e6565b905095945050505050565b60008151905061537a8161394d565b92915050565b60006020828403121561539657615395613917565b5b60006153a48482850161536b565b91505092915050565b60006153b882613a97565b915060008214156153cc576153cb6145c0565b5b600182039050919050565b7f537472696e67733a20686578206c656e67746820696e73756666696369656e74600082015250565b600061540d6020836139e7565b9150615418826153d7565b602082019050919050565b6000602082019050818103600083015261543c81615400565b9050919050565b7f4552433732313a206d696e7420746f20746865207a65726f2061646472657373600082015250565b60006154796020836139e7565b915061548482615443565b602082019050919050565b600060208201905081810360008301526154a88161546c565b9050919050565b7f4552433732313a20746f6b656e20616c7265616479206d696e74656400000000600082015250565b60006154e5601c836139e7565b91506154f0826154af565b602082019050919050565b60006020820190508181036000830152615514816154d8565b905091905056fea2646970667358221220aa7a4b4e0a86ea60f3fbeda27281cd72835a41b65a0d0e423db5f7109541960364736f6c63430008090033",
  "linkReferences": {},
  "deployedLinkReferences": {}
}